:020000001028C6
:10000800FE00030EF1000408F2000A08F300831250
:1000180003137F08F40016281128F501F601F701EB
:10002800830159280B1D4928CE30810001307606FE
:10003800031D20282C307506031D4128F501F60103
:10004800771D3528831603131F08F03908389F00D9
:10005800831203131F160C13FB30F0007008F7050A
:100068004728831603131F08F03905389F008312A9
:1000780003131F120C13771547280130F5070318CF
:10008800F60A0030F6070B114E280C1F4E281F1BCE
:1000980006110C137408FF0073088A0072088400A4
:1000A800710E8300FE0E7E0E09008316031386115F
:1000B800831203138611C7208316031386120612B0
:1000C80083120313861206128316031306110517EB
:1000D8000613831203130613831603130516DC2075
:1000E8008B17F32083120313061506162130A2007E
:1000F800A20B7C2883120313061286150630A4006F
:100108001330A300B130A200A20B8828A30B8828C3
:10011800A40B88288F288312031386119420922811
:10012800F71C9E2883120313051B9E28FD30A00090
:100138002008F70583120313051F0800F7180800A5
:10014800F71486160D30A100FB30A000A00BAA28DA
:10015800A10BAA28AF288312031386120930A00026
:10016800A00BB428B7288312031306164130A10048
:10017800EE30A000A00BBE28A10BBE280000831201
:10018800031306120800831603130514851483123B
:1001980003131F169F111F08F83902389F00E92022
:1001A800831203130C13831603130C170B17080081
:1001B8008316031381128111F8308105CE30831222
:1001C800031381000B118B160800831603139F1766
:1001D8001F179F161F08F03908389F000800831260
:0C01E8000313051E0800403086060800C6
:02400E0070FF41
:00000001FF
